:020000040800F2
:100000006006002031020008390200083B020008A7
:100010003D0200083F020008410200080000000005
:100020000000000000000000000000004302000883
:1000300045020008000000004702000849020008CD
:100040004B0200084B0200084B0200084B0200085C
:100050004B0200084B0200084B0200084B0200084C
:100060004B0200084B0200084B0200084B0200083C
:100070004B0200084B0200084B0200084B0200082C
:100080004B0200084B0200084B0200084B0200081C
:100090004B0200084B0200084B0200084B0200080C
:1000A0004B0200084B0200084B0200084B020008FC
:1000B0004B0200084B0200084B0200084B020008EC
:1000C0004B0200084B0200084B0200084B020008DC
:1000D0004B0200084B0200084B0200084B020008CC
:1000E0004B0200084B0200084B0200084B020008BC
:1000F0004B0200084B0200084B0200084B020008AC
:100100004B0200084B0200084B0200084B0200089B
:100110004B0200084B0200084B0200084B0200088B
:100120004B0200084B0200084B0200084B0200087B
:100130004B0200084B0200084B0200084B0200086B
:100140004B0200084B0200084B0200084B0200085B
:100150004B0200084B0200084B0200084B0200084B
:100160004B0200084B0200084B0200084B0200083B
:100170004B0200084B0200084B0200080000000080
:100180004B0200084B0200084B0200084B0200081B
:100190004B0200084B0200084B0200084B0200080B
:1001A0004B0200084B0200084B02000800F002F866
:1001B00000F02EF80AA090E8000C82448344AAF1D3
:1001C0000107DA4501D100F023F8AFF2090EBAE8D1
:1001D0000F0013F0010F18BFFB1A43F0010318477B
:1001E00050030000600300000023002400250026C7
:1001F000103A28BF78C1FBD8520728BF30C148BF8A
:100200000B6070471FB500F08DF91FBD10B510BD14
:1002100000F031F81146FFF7F5FF00F063F900F048
:100220004FF803B4FFF7F2FF03BC00F057F80000EB
:100230000948804709480047FEE7FEE7FEE7FEE77A
:10024000FEE7FEE7FEE7FEE7FEE7FEE704480549B6
:10025000054A064B70470000ED020008AD0100089A
:100260006000002060060020600200206002002084
:10027000704770477047754600F02CF8AE46050091
:100280006946534620F00700854618B020B5FFF7B1
:10029000DDFFBDE820404FF000064FF000074FF0B3
:1002A00000084FF0000B21F00701AC46ACE8C00994
:1002B000ACE8C009ACE8C009ACE8C0098D4670479D
:1002C00010B50446AFF300802046BDE81040FFF7AC
:1002D000A8BF000000487047000000200149182016
:1002E000ABBEFEE72600020070470000144800681D
:1002F00040F47000124908601248006840F00100A4
:100300001049086000200F49083108600D48006856
:100310000D4908400B4908600C48091D0860081F7A
:10032000006820F48020091F0860002005490C3176
:1003300008604FF000600249803908607047000093
:1003400088ED00E000380240FFFFF6FE1030002488
:100350006148006840F002005F4908605F4800683B
:1003600020F480605D4908600846006820F4006061
:100370000860081D006840F48010091D08600846E8
:10038000006820F4001008600846006840F480000F
:1003900008600846006820F400000860081D006836
:1003A00040F48010091D08600846006820F4001021
:1003B00008600846006840F480000860084600684D
:1003C00020F4000008604548001F006820F48010F9
:1003D0004249091F08600846006840F400100860A0
:1003E0000846006820F4800008600846006840F471
:1003F000000008600846406A40F480713748001FDA
:100400004162406A40F400713448001F4162406A12
:1004100040F480613148001F4162406A20F400616D
:100420002E48001F4162406A40F480512B48001F53
:100430004162406A40F400512848001F4162406A0E
:1004400040F480412548001F4162406A20F4004189
:100450002248001F416220481030006840F480208C
:100460001D491031086040F283601D4908601C4836
:100470000830006820F48070194908310860084687
:10048000006820F400700860081F006820F48050A5
:10049000091F0860081D006820F48050091D0860CD
:1004A0000846006820F400500860081F006820F427
:1004B0008060091F08600846006840F0040008607A
:1004C0000846006840F0080008600846006840F4EC
:1004D00000500860704700003038024004040240B9
:1004E00008480040FFF734FF0BE006480068C0F3FF
:1004F000401030B10348001D0068C2B2104600F041
:1005000003F8F2E7004800400549086000BF0449CD
:10051000091F0968C1F3C0110029F8D07047000015
:10052000044800404FF04070E1EE100A70470000B0
:10053000400500080000002060060000E8010008F7
:0400000508000231BC
:00000001FF
