:020000040800F2
:10000000600600200D020008150200081702000813
:10001000190200081B0200081D0200080000000071
:100020000000000000000000000000001F020008A7
:100030002102000800000000230200082502000839
:1000400027020008270200082702000827020008EC
:1000500027020008270200082702000827020008DC
:1000600027020008270200082702000827020008CC
:1000700027020008270200082702000827020008BC
:1000800027020008270200082702000827020008AC
:10009000270200082702000827020008270200089C
:1000A000270200082702000827020008270200088C
:1000B000270200082702000827020008270200087C
:1000C000270200082702000827020008270200086C
:1000D000270200082702000827020008270200085C
:1000E000270200082702000827020008270200084C
:1000F000270200082702000827020008270200083C
:10010000270200082702000827020008270200082B
:10011000270200082702000827020008270200081B
:10012000270200082702000827020008270200080B
:1001300027020008270200082702000827020008FB
:1001400027020008270200082702000827020008EB
:1001500027020008270200082702000827020008DB
:1001600027020008270200082702000827020008CB
:1001700027020008270200082702000800000000EC
:10018000270200082702000800F002F800F02EF80D
:100190000AA090E8000C82448344AAF10107DA45E2
:1001A00001D100F023F8AFF2090EBAE80F0013F006
:1001B000010F18BFFB1A43F001031847B4040000F5
:1001C000C40400000023002400250026103A28BFA4
:1001D00078C1FBD8520728BF30C148BF0B607047B9
:1001E0001FB500F03FFA1FBD10B510BD00F031F88B
:1001F0001146FFF7F5FF00F0E9F900F04FF803B4FE
:10020000FFF7F2FF03BC00F057F8000009488047F1
:1002100009480047FEE7FEE7FEE7FEE7FEE7FEE7E8
:10022000FEE7FEE7FEE7FEE704480549054A064B00
:1002300070470000C9020008890100086000002022
:1002400060060020600200206002002070477047B6
:100250007047754600F02CF8AE46050069465346D7
:1002600020F00700854618B020B5FFF7DDFFBDE898
:1002700020404FF000064FF000074FF000084FF00D
:10028000000B21F00701AC46ACE8C009ACE8C0099E
:10029000ACE8C009ACE8C0098D46704710B504460B
:1002A000AFF300802046BDE81040FFF7A8BF000074
:1002B000004870470000002001491820ABBEFEE74F
:1002C00026000200704700001448006840F47000E7
:1002D000124908601248006840F0010010490860A7
:1002E00000200F49083108600D4800680D4908409A
:1002F0000B4908600C48091D0860081F006820F4BD
:100300008020091F0860002005490C3108604FF06B
:1003100000600249803908607047000088ED00E005
:1003200000380240FFFFF6FE103000241648006837
:1003300040F00800144908601448006840F080400C
:10034000124908600846006820F000400860081D57
:10035000006820F40040091D0860081D006840F096
:100360008040091D08600846006820F000400860D1
:10037000081D006820F08040091D086008460068DC
:1003800020F000400860704730380240000C024006
:100390001248006840F001001049086010480068E9
:1003A00020F001000E4908600846006820F00200B5
:1003B00008600846806840F0010088600846806850
:1003C00020F0020088600846C06820F00100C86084
:1003D0000846C06840F00200C860704730380240EC
:1003E000000002404148006840F480503F490860E6
:1003F0003F48006840F004003D4908600846006836
:1004000040F0020008600846006820F00100086023
:100410000846006840F0180008600846006820F0B0
:10042000200008600846006820F080000860084648
:10043000006840F4007008600846006840F480706E
:1004400008600846006820F480600860084600687C
:1004500020F4006008600846006820F4005008603E
:100460000846006820F4004008600846006840F034
:10047000400008601D48001F006840F480401B4990
:10048000091F08601B48006820F004001949086033
:100490000846006840F0020008600846006820F046
:1004A000010008600846006820F0800008600846E7
:1004B000006840F4007008600846006820F480601E
:1004C00008600846006820F400600860084600687C
:1004D00020F4005008600846006820F400400860DE
:1004E0000846006840F04000086070474438024009
:1004F00000300140003800402F48006840F0010003
:100500002D4908602D48006840F428402B490860B8
:100510000846406820F0E00048600846806840F4E3
:100520007C4088600846006A2549084323490862E0
:100530002148006840F002001F4908602148006817
:1005400020F480101F4908600846006840F400103D
:100550000860081D006820F48060091D0860081DFF
:10056000006840F44010091D08601648406A40F4D5
:10057000A061144841621048006840F004000E4930
:1005800008601148006840F0A0000F490860081D8D
:10059000006820F00C00091D0860081D006840F08C
:1005A000F000091D086008482030006840F4AA40A7
:1005B0000549203108607047303802400000024091
:1005C00000005055000402400008024008B5002019
:1005D0000090FFF7ABFEFFF7DBFEFFF78DFFFFF7A5
:1005E00001FF35E01B48006900F0010000B3002066
:1005F000009002E00098401C009049F640410098AD
:100600008842F7D31348006900F0010080B15520FB
:100610001149C86000BF1048806800F0020000283F
:10062000F9D000BF0B48006900F001000028F9D1A3
:100630000A48006800F0010050B10848001D006839
:10064000552805D10648006880F400400449086038
:10065000C8E70000000002400030014008380040B8
:10066000140C02404FF04070E1EE100A7047000099
:10067000800600080000002060060000C401000899
:040000050800018965
:00000001FF
